{
  "contractName": "Election",
  "abi": [
    {
      "inputs": [],
      "stateMutability": "nonpayable",
      "type": "constructor"
    },
    {
      "anonymous": false,
      "inputs": [
        {
          "indexed": false,
          "internalType": "string",
          "name": "result",
          "type": "string"
        },
        {
          "indexed": true,
          "internalType": "uint256",
          "name": "_candidateId",
          "type": "uint256"
        }
      ],
      "name": "WinnerEvent",
      "type": "event"
    },
    {
      "anonymous": false,
      "inputs": [
        {
          "indexed": false,
          "internalType": "string",
          "name": "mine",
          "type": "string"
        },
        {
          "indexed": true,
          "internalType": "uint256",
          "name": "_candidateId",
          "type": "uint256"
        }
      ],
      "name": "votedEvent",
      "type": "event"
    },
    {
      "inputs": [
        {
          "internalType": "uint256",
          "name": "",
          "type": "uint256"
        }
      ],
      "name": "candidates",
      "outputs": [
        {
          "internalType": "uint256",
          "name": "id",
          "type": "uint256"
        },
        {
          "internalType": "string",
          "name": "name",
          "type": "string"
        },
        {
          "internalType": "uint256",
          "name": "voteCount",
          "type": "uint256"
        }
      ],
      "stateMutability": "view",
      "type": "function",
      "constant": true
    },
    {
      "inputs": [],
      "name": "candidatesCount",
      "outputs": [
        {
          "internalType": "uint256",
          "name": "",
          "type": "uint256"
        }
      ],
      "stateMutability": "view",
      "type": "function",
      "constant": true
    },
    {
      "inputs": [
        {
          "internalType": "address",
          "name": "",
          "type": "address"
        }
      ],
      "name": "voters",
      "outputs": [
        {
          "internalType": "bool",
          "name": "",
          "type": "bool"
        }
      ],
      "stateMutability": "view",
      "type": "function",
      "constant": true
    },
    {
      "inputs": [
        {
          "internalType": "uint256",
          "name": "_candidateId",
          "type": "uint256"
        }
      ],
      "name": "vote",
      "outputs": [],
      "stateMutability": "nonpayable",
      "type": "function"
    },
    {
      "inputs": [],
      "name": "winner",
      "outputs": [
        {
          "internalType": "string",
          "name": "winnerNameString",
          "type": "string"
        }
      ],
      "stateMutability": "view",
      "type": "function",
      "constant": true
    }
  ],
  "bytecode": "0x608060405234801561001057600080fd5b506100556040518060400160405280600c81526020017f4e6172656e6472614d6f6469000000000000000000000000000000000000000081525061009e60201b60201c565b6100996040518060400160405280600e81526020017f4d616e6d6f68616e2053696e676800000000000000000000000000000000000081525061009e60201b60201c565b6102a4565b6002600081546100ad906101fd565b9190508190555060405180606001604052806002548152602001828152602001600081525060016000600254815260200190815260200160002060008201518160000155602082015181600101908051906020019061010d92919061011e565b506040820151816002015590505050565b82805461012a906101cb565b90600052602060002090601f01602090048101928261014c5760008555610193565b82601f1061016557805160ff1916838001178555610193565b82800160010185558215610193579182015b82811115610192578251825591602001919060010190610177565b5b5090506101a091906101a4565b5090565b5b808211156101bd5760008160009055506001016101a5565b5090565b6000819050919050565b600060028204905060018216806101e357607f821691505b602082108114156101f7576101f6610275565b5b50919050565b6000610208826101c1565b91507fffffffffffffffffffffffffffffffffffffffffffffffffffffffffffffffff82141561023b5761023a610246565b5b600182019050919050565b7f4e487b7100000000000000000000000000000000000000000000000000000000600052601160045260246000fd5b7f4e487b7100000000000000000000000000000000000000000000000000000000600052602260045260246000fd5b6107c080620002b46000396000f3fe608060405234801561001057600080fd5b50600436106100575760003560e01c80630121b93f1461005c5780632d35a8a2146100785780633477ee2e14610096578063a3ec138d146100c8578063dfbf53ae146100f8575b600080fd5b61007660048036038101906100719190610459565b610116565b005b610080610243565b60405161008d9190610559565b60405180910390f35b6100b060048036038101906100ab9190610459565b610249565b6040516100bf93929190610574565b60405180910390f35b6100e260048036038101906100dd9190610430565b6102fb565b6040516100ef91906104fc565b60405180910390f35b61010061031b565b60405161010d9190610517565b60405180910390f35b6000803373ffffffffffffffffffffffffffffffffffffffff1673ffffffffffffffffffffffffffffffffffffffff16815260200190815260200160002060009054906101000a900460ff161561016c57600080fd5b60008111801561017e57506002548111155b61018757600080fd5b60016000803373ffffffffffffffffffffffffffffffffffffffff1673ffffffffffffffffffffffffffffffffffffffff16815260200190815260200160002060006101000a81548160ff0219169083151502179055506001600082815260200190815260200160002060020160008154809291906102059061067b565b9190505550807f8f0f7d03219948a2b8739cb4611b7300a297fbae05e48e93b4b862dd5221157960405161023890610539565b60405180910390a250565b60025481565b600160205280600052604060002060009150905080600001549080600101805461027290610649565b80601f016020809104026020016040519081016040528092919081815260200182805461029e90610649565b80156102eb5780601f106102c0576101008083540402835291602001916102eb565b820191906000526020600020905b8154815290600101906020018083116102ce57829003601f168201915b5050505050908060020154905083565b60006020528060005260406000206000915054906101000a900460ff1681565b606060005b60025481116104015760036001600083815260200190815260200160002060020154106103ee5760016000828152602001908152602001600020600101805461036890610649565b80601f016020809104026020016040519081016040528092919081815260200182805461039490610649565b80156103e15780601f106103b6576101008083540402835291602001916103e1565b820191906000526020600020905b8154815290600101906020018083116103c457829003601f168201915b5050505050915050610403565b80806103f99061067b565b915050610320565b505b90565b6000813590506104158161075c565b92915050565b60008135905061042a81610773565b92915050565b60006020828403121561044257600080fd5b600061045084828501610406565b91505092915050565b60006020828403121561046b57600080fd5b60006104798482850161041b565b91505092915050565b61048b816105e0565b82525050565b600061049c826105b2565b6104a681856105bd565b93506104b6818560208601610616565b6104bf81610722565b840191505092915050565b60006104d7600f836105bd565b91506104e282610733565b602082019050919050565b6104f68161060c565b82525050565b60006020820190506105116000830184610482565b92915050565b600060208201905081810360008301526105318184610491565b905092915050565b60006020820190508181036000830152610552816104ca565b9050919050565b600060208201905061056e60008301846104ed565b92915050565b600060608201905061058960008301866104ed565b818103602083015261059b8185610491565b90506105aa60408301846104ed565b949350505050565b600081519050919050565b600082825260208201905092915050565b60006105d9826105ec565b9050919050565b60008115159050919050565b600073ffffffffffffffffffffffffffffffffffffffff82169050919050565b6000819050919050565b60005b83811015610634578082015181840152602081019050610619565b83811115610643576000848401525b50505050565b6000600282049050600182168061066157607f821691505b60208210811415610675576106746106f3565b5b50919050565b60006106868261060c565b91507fffffffffffffffffffffffffffffffffffffffffffffffffffffffffffffffff8214156106b9576106b86106c4565b5b600182019050919050565b7f4e487b7100000000000000000000000000000000000000000000000000000000600052601160045260246000fd5b7f4e487b7100000000000000000000000000000000000000000000000000000000600052602260045260246000fd5b6000601f19601f8301169050919050565b7f766f746564207269676874206e6f770000000000000000000000000000000000600082015250565b610765816105ce565b811461077057600080fd5b50565b61077c8161060c565b811461078757600080fd5b5056fea2646970667358221220627f0a43927e69be89f666495337b676120598cffe4b24855861a47dd17a510a64736f6c63430008040033",
  "immutableReferences": {},
  "source": "// SPDX-License-Identifier: MIT\n\npragma solidity >=0.4.22 <0.9.0;\n\n\ncontract Election{\n\n    //Model a candidate\n    struct Candidate{\n        uint id;\n        string name;\n        uint voteCount;\n    }\n\n    //Store accoutns that have voted\n    mapping(address => bool) public voters;\n    \n    //Store Candidates\n    //Fetch Candidate\n    mapping(uint => Candidate) public candidates;\n\n    //store candidates count\n    uint public candidatesCount;\n\n    event votedEvent(string mine,uint indexed _candidateId);\n\n    event WinnerEvent(string result,uint indexed _candidateId);\n\n    constructor() public{\n        addCandidate(\"NarendraModi\");\n        addCandidate(\"Manmohan Singh\");\n    }\n\n    function addCandidate(string memory _name) private{\n        ++candidatesCount;\n        candidates[candidatesCount] = Candidate(candidatesCount, _name,0);\n    }\n\n    function vote(uint _candidateId) public{\n        //require that they have vated before\n        require(!voters[msg.sender]);\n\n        //require a valid candidate\n        require(_candidateId > 0 && _candidateId <= candidatesCount);\n\n        //record that voter has voted\n        voters[msg.sender] = true;\n\n        //update candidate vote count\n        candidates[_candidateId].voteCount++;\n\n        //trigger voted event\n        emit votedEvent(\"voted right now\", _candidateId);\n    }\n\n    function winner () public view returns(string memory winnerNameString) {\nfor(uint i =0; i <= candidatesCount; i++ ){\nif(candidates[i].voteCount >= 3){\n// return string.concat(\"this person is the winner \", candidates[i].name);\nreturn candidates[i].name;\n}\n}\n}\n\n    \n}    ",
  "sourcePath": "/home/samikshakhambadkar/Downloads/Electionvoting/contracts/Election.sol",
  "compiler": {
    "name": "solc",
    "version": "0.8.4+commit.c7e474f2.Emscripten.clang"
  },
  "schemaVersion": "3.4.10",
  "updatedAt": "2022-09-27T10:04:19.628Z",
  "networkType": "ethereum",
  "devdoc": {
    "kind": "dev",
    "methods": {},
    "version": 1
  },
  "userdoc": {
    "kind": "user",
    "methods": {},
    "version": 1
  }
}